{
  "_format": "hh3-artifact-1",
  "contractName": "NineStarGold",
  "sourceName": "contracts/9StarGold.sol",
  "abi": [
    {
      "inputs": [],
      "stateMutability": "nonpayable",
      "type": "constructor"
    },
    {
      "inputs": [
        {
          "internalType": "address",
          "name": "spender",
          "type": "address"
        },
        {
          "internalType": "uint256",
          "name": "allowance",
          "type": "uint256"
        },
        {
          "internalType": "uint256",
          "name": "needed",
          "type": "uint256"
        }
      ],
      "name": "ERC20InsufficientAllowance",
      "type": "error"
    },
    {
      "inputs": [
        {
          "internalType": "address",
          "name": "sender",
          "type": "address"
        },
        {
          "internalType": "uint256",
          "name": "balance",
          "type": "uint256"
        },
        {
          "internalType": "uint256",
          "name": "needed",
          "type": "uint256"
        }
      ],
      "name": "ERC20InsufficientBalance",
      "type": "error"
    },
    {
      "inputs": [
        {
          "internalType": "address",
          "name": "approver",
          "type": "address"
        }
      ],
      "name": "ERC20InvalidApprover",
      "type": "error"
    },
    {
      "inputs": [
        {
          "internalType": "address",
          "name": "receiver",
          "type": "address"
        }
      ],
      "name": "ERC20InvalidReceiver",
      "type": "error"
    },
    {
      "inputs": [
        {
          "internalType": "address",
          "name": "sender",
          "type": "address"
        }
      ],
      "name": "ERC20InvalidSender",
      "type": "error"
    },
    {
      "inputs": [
        {
          "internalType": "address",
          "name": "spender",
          "type": "address"
        }
      ],
      "name": "ERC20InvalidSpender",
      "type": "error"
    },
    {
      "inputs": [
        {
          "internalType": "address",
          "name": "owner",
          "type": "address"
        }
      ],
      "name": "OwnableInvalidOwner",
      "type": "error"
    },
    {
      "inputs": [
        {
          "internalType": "address",
          "name": "account",
          "type": "address"
        }
      ],
      "name": "OwnableUnauthorizedAccount",
      "type": "error"
    },
    {
      "inputs": [],
      "name": "ReentrancyGuardReentrantCall",
      "type": "error"
    },
    {
      "anonymous": false,
      "inputs": [
        {
          "indexed": true,
          "internalType": "address",
          "name": "owner",
          "type": "address"
        },
        {
          "indexed": true,
          "internalType": "address",
          "name": "spender",
          "type": "address"
        },
        {
          "indexed": false,
          "internalType": "uint256",
          "name": "value",
          "type": "uint256"
        }
      ],
      "name": "Approval",
      "type": "event"
    },
    {
      "anonymous": false,
      "inputs": [
        {
          "indexed": true,
          "internalType": "address",
          "name": "buyer",
          "type": "address"
        },
        {
          "indexed": false,
          "internalType": "uint256",
          "name": "ethAmount",
          "type": "uint256"
        },
        {
          "indexed": false,
          "internalType": "uint256",
          "name": "tokensMinted",
          "type": "uint256"
        },
        {
          "indexed": false,
          "internalType": "uint256",
          "name": "profitAmount",
          "type": "uint256"
        }
      ],
      "name": "GoldPurchased",
      "type": "event"
    },
    {
      "anonymous": false,
      "inputs": [
        {
          "indexed": true,
          "internalType": "address",
          "name": "previousOwner",
          "type": "address"
        },
        {
          "indexed": true,
          "internalType": "address",
          "name": "newOwner",
          "type": "address"
        }
      ],
      "name": "OwnershipTransferred",
      "type": "event"
    },
    {
      "anonymous": false,
      "inputs": [
        {
          "indexed": true,
          "internalType": "address",
          "name": "oldWallet",
          "type": "address"
        },
        {
          "indexed": true,
          "internalType": "address",
          "name": "newWallet",
          "type": "address"
        }
      ],
      "name": "ProfitWalletUpdated",
      "type": "event"
    },
    {
      "anonymous": false,
      "inputs": [
        {
          "indexed": true,
          "internalType": "address",
          "name": "from",
          "type": "address"
        },
        {
          "indexed": true,
          "internalType": "address",
          "name": "to",
          "type": "address"
        },
        {
          "indexed": false,
          "internalType": "uint256",
          "name": "value",
          "type": "uint256"
        }
      ],
      "name": "Transfer",
      "type": "event"
    },
    {
      "inputs": [],
      "name": "BASIS_POINTS",
      "outputs": [
        {
          "internalType": "uint256",
          "name": "",
          "type": "uint256"
        }
      ],
      "stateMutability": "view",
      "type": "function"
    },
    {
      "inputs": [],
      "name": "PROFIT_PERCENTAGE",
      "outputs": [
        {
          "internalType": "uint256",
          "name": "",
          "type": "uint256"
        }
      ],
      "stateMutability": "view",
      "type": "function"
    },
    {
      "inputs": [
        {
          "internalType": "address",
          "name": "owner",
          "type": "address"
        },
        {
          "internalType": "address",
          "name": "spender",
          "type": "address"
        }
      ],
      "name": "allowance",
      "outputs": [
        {
          "internalType": "uint256",
          "name": "",
          "type": "uint256"
        }
      ],
      "stateMutability": "view",
      "type": "function"
    },
    {
      "inputs": [
        {
          "internalType": "address",
          "name": "spender",
          "type": "address"
        },
        {
          "internalType": "uint256",
          "name": "value",
          "type": "uint256"
        }
      ],
      "name": "approve",
      "outputs": [
        {
          "internalType": "bool",
          "name": "",
          "type": "bool"
        }
      ],
      "stateMutability": "nonpayable",
      "type": "function"
    },
    {
      "inputs": [
        {
          "internalType": "address",
          "name": "account",
          "type": "address"
        }
      ],
      "name": "balanceOf",
      "outputs": [
        {
          "internalType": "uint256",
          "name": "",
          "type": "uint256"
        }
      ],
      "stateMutability": "view",
      "type": "function"
    },
    {
      "inputs": [
        {
          "internalType": "address",
          "name": "_profitWallet",
          "type": "address"
        }
      ],
      "name": "buyGold",
      "outputs": [],
      "stateMutability": "payable",
      "type": "function"
    },
    {
      "inputs": [],
      "name": "decimals",
      "outputs": [
        {
          "internalType": "uint8",
          "name": "",
          "type": "uint8"
        }
      ],
      "stateMutability": "view",
      "type": "function"
    },
    {
      "inputs": [],
      "name": "name",
      "outputs": [
        {
          "internalType": "string",
          "name": "",
          "type": "string"
        }
      ],
      "stateMutability": "view",
      "type": "function"
    },
    {
      "inputs": [],
      "name": "owner",
      "outputs": [
        {
          "internalType": "address",
          "name": "",
          "type": "address"
        }
      ],
      "stateMutability": "view",
      "type": "function"
    },
    {
      "inputs": [],
      "name": "profitWallet",
      "outputs": [
        {
          "internalType": "address",
          "name": "",
          "type": "address"
        }
      ],
      "stateMutability": "view",
      "type": "function"
    },
    {
      "inputs": [],
      "name": "renounceOwnership",
      "outputs": [],
      "stateMutability": "nonpayable",
      "type": "function"
    },
    {
      "inputs": [
        {
          "internalType": "address",
          "name": "_newProfitWallet",
          "type": "address"
        }
      ],
      "name": "setProfitWallet",
      "outputs": [],
      "stateMutability": "nonpayable",
      "type": "function"
    },
    {
      "inputs": [],
      "name": "symbol",
      "outputs": [
        {
          "internalType": "string",
          "name": "",
          "type": "string"
        }
      ],
      "stateMutability": "view",
      "type": "function"
    },
    {
      "inputs": [],
      "name": "totalSupply",
      "outputs": [
        {
          "internalType": "uint256",
          "name": "",
          "type": "uint256"
        }
      ],
      "stateMutability": "view",
      "type": "function"
    },
    {
      "inputs": [
        {
          "internalType": "address",
          "name": "to",
          "type": "address"
        },
        {
          "internalType": "uint256",
          "name": "value",
          "type": "uint256"
        }
      ],
      "name": "transfer",
      "outputs": [
        {
          "internalType": "bool",
          "name": "",
          "type": "bool"
        }
      ],
      "stateMutability": "nonpayable",
      "type": "function"
    },
    {
      "inputs": [
        {
          "internalType": "address",
          "name": "from",
          "type": "address"
        },
        {
          "internalType": "address",
          "name": "to",
          "type": "address"
        },
        {
          "internalType": "uint256",
          "name": "value",
          "type": "uint256"
        }
      ],
      "name": "transferFrom",
      "outputs": [
        {
          "internalType": "bool",
          "name": "",
          "type": "bool"
        }
      ],
      "stateMutability": "nonpayable",
      "type": "function"
    },
    {
      "inputs": [
        {
          "internalType": "address",
          "name": "newOwner",
          "type": "address"
        }
      ],
      "name": "transferOwnership",
      "outputs": [],
      "stateMutability": "nonpayable",
      "type": "function"
    },
    {
      "inputs": [],
      "name": "withdrawETH",
      "outputs": [],
      "stateMutability": "nonpayable",
      "type": "function"
    },
    {
      "stateMutability": "payable",
      "type": "receive"
    }
  ],
  "bytecode": "0x608060405234801561000f575f5ffd5b5033604051806040016040528060098152602001680e54dd185c91dbdb1960ba1b8152506040518060400160405280600381526020016239534760e81b815250816003908161005e91906101aa565b50600461006b82826101aa565b5050506001600160a01b03811661009b57604051631e4fbdf760e01b81525f600482015260240160405180910390fd5b6100a4816100c1565b506001600655600780546001600160a01b03191633179055610264565b600580546001600160a01b038381166001600160a01b0319831681179093556040519116919082907f8be0079c531659141344cd1fd0a4f28419497f9722a3daafe3b4186f6b6457e0905f90a35050565b634e487b7160e01b5f52604160045260245ffd5b600181811c9082168061013a57607f821691505b60208210810361015857634e487b7160e01b5f52602260045260245ffd5b50919050565b601f8211156101a557805f5260205f20601f840160051c810160208510156101835750805b601f840160051c820191505b818110156101a2575f815560010161018f565b50505b505050565b81516001600160401b038111156101c3576101c3610112565b6101d7816101d18454610126565b8461015e565b6020601f821160018114610209575f83156101f25750848201515b5f19600385901b1c1916600184901b1784556101a2565b5f84815260208120601f198516915b828110156102385787850151825560209485019460019092019101610218565b508482101561025557868401515f19600387901b60f8161c191681555b50505050600190811b01905550565b610d29806102715f395ff3fe608060405260043610610108575f3560e01c8063866b6ac611610092578063da2ca9b511610062578063da2ca9b5146102bc578063dd62ed3e146102db578063e086e5ec1461031f578063e1f1c4a714610333578063f2fde38b14610348575f5ffd5b8063866b6ac6146102585780638da5cb5b1461026c57806395d89b4114610289578063a9059cbb1461029d575f5ffd5b80632301d775116100d85780632301d7751461019f57806323b872dd146101d6578063313ce567146101f557806370a0823114610210578063715018a614610244575f5ffd5b806306fdde0314610113578063095ea7b31461013d5780630c431e931461016c57806318160ddd14610181575f5ffd5b3661010f57005b5f5ffd5b34801561011e575f5ffd5b50610127610367565b6040516101349190610b0c565b60405180910390f35b348015610148575f5ffd5b5061015c610157366004610b5c565b6103f7565b6040519015158152602001610134565b61017f61017a366004610b84565b610410565b005b34801561018c575f5ffd5b506002545b604051908152602001610134565b3480156101aa575f5ffd5b506007546101be906001600160a01b031681565b6040516001600160a01b039091168152602001610134565b3480156101e1575f5ffd5b5061015c6101f0366004610ba4565b61052e565b348015610200575f5ffd5b5060405160128152602001610134565b34801561021b575f5ffd5b5061019161022a366004610b84565b6001600160a01b03165f9081526020819052604090205490565b34801561024f575f5ffd5b5061017f610551565b348015610263575f5ffd5b50610191606481565b348015610277575f5ffd5b506005546001600160a01b03166101be565b348015610294575f5ffd5b50610127610564565b3480156102a8575f5ffd5b5061015c6102b7366004610b5c565b610573565b3480156102c7575f5ffd5b5061017f6102d6366004610b84565b610580565b3480156102e6575f5ffd5b506101916102f5366004610bde565b6001600160a01b039182165f90815260016020908152604080832093909416825291909152205490565b34801561032a575f5ffd5b5061017f6105ff565b34801561033e575f5ffd5b5061019161271081565b348015610353575f5ffd5b5061017f610362366004610b84565b610713565b60606003805461037690610c0f565b80601f01602080910402602001604051908101604052809291908181526020018280546103a290610c0f565b80156103ed5780601f106103c4576101008083540402835291602001916103ed565b820191905f5260205f20905b8154815290600101906020018083116103d057829003601f168201915b5050505050905090565b5f3361040481858561074d565b60019150505b92915050565b61041861075f565b5f34116104785760405162461bcd60e51b8152602060048201526024808201527f3953746172476f6c643a204d7573742073656e642045544820746f206275792060448201526319dbdb1960e21b60648201526084015b60405180910390fd5b6001600160a01b03811661049e5760405162461bcd60e51b815260040161046f90610c47565b5f6127106104ad606434610caa565b6104b79190610cc1565b9050345f6104c58383610ce0565b90506104d13383610789565b6104db8484610789565b604080513481526020810184905290810184905233907ffd7daf5a78d2866a5e4edc7c40079273bd146c75ff45fce0df69b21ef53dc4ea9060600160405180910390a250505061052b6001600655565b50565b5f3361053b8582856107bd565b610546858585610839565b506001949350505050565b610559610896565b6105625f6108c3565b565b60606004805461037690610c0f565b5f33610404818585610839565b610588610896565b6001600160a01b0381166105ae5760405162461bcd60e51b815260040161046f90610c47565b600780546001600160a01b038381166001600160a01b0319831681179093556040519116919082907fe4de69ef21cd49dac1d5fdbf2461976cfbefcb315afbc932a9c0a755068b6489905f90a35050565b610607610896565b47806106555760405162461bcd60e51b815260206004820152601d60248201527f3953746172476f6c643a204e6f2045544820746f207769746864726177000000604482015260640161046f565b5f6106686005546001600160a01b031690565b6001600160a01b0316826040515f6040518083038185875af1925050503d805f81146106af576040519150601f19603f3d011682016040523d82523d5f602084013e6106b4565b606091505b505090508061070f5760405162461bcd60e51b815260206004820152602160248201527f3953746172476f6c643a204661696c656420746f2077697468647261772045546044820152600960fb1b606482015260840161046f565b5050565b61071b610896565b6001600160a01b03811661074457604051631e4fbdf760e01b81525f600482015260240161046f565b61052b816108c3565b61075a8383836001610914565b505050565b60026006540361078257604051633ee5aeb560e01b815260040160405180910390fd5b6002600655565b6001600160a01b0382166107b25760405163ec442f0560e01b81525f600482015260240161046f565b61070f5f83836109e6565b6001600160a01b038381165f908152600160209081526040808320938616835292905220545f19811015610833578181101561082557604051637dc7a0d960e11b81526001600160a01b0384166004820152602481018290526044810183905260640161046f565b61083384848484035f610914565b50505050565b6001600160a01b03831661086257604051634b637e8f60e11b81525f600482015260240161046f565b6001600160a01b03821661088b5760405163ec442f0560e01b81525f600482015260240161046f565b61075a8383836109e6565b6005546001600160a01b031633146105625760405163118cdaa760e01b815233600482015260240161046f565b600580546001600160a01b038381166001600160a01b0319831681179093556040519116919082907f8be0079c531659141344cd1fd0a4f28419497f9722a3daafe3b4186f6b6457e0905f90a35050565b6001600160a01b03841661093d5760405163e602df0560e01b81525f600482015260240161046f565b6001600160a01b03831661096657604051634a1406b160e11b81525f600482015260240161046f565b6001600160a01b038085165f908152600160209081526040808320938716835292905220829055801561083357826001600160a01b0316846001600160a01b03167f8c5be1e5ebec7d5bd14f71427d1e84f3dd0314c0f7b2291e5b200ac8c7c3b925846040516109d891815260200190565b60405180910390a350505050565b6001600160a01b038316610a10578060025f828254610a059190610ce0565b90915550610a809050565b6001600160a01b0383165f9081526020819052604090205481811015610a625760405163391434e360e21b81526001600160a01b0385166004820152602481018290526044810183905260640161046f565b6001600160a01b0384165f9081526020819052604090209082900390555b6001600160a01b038216610a9c57600280548290039055610aba565b6001600160a01b0382165f9081526020819052604090208054820190555b816001600160a01b0316836001600160a01b03167fddf252ad1be2c89b69c2b068fc378daa952ba7f163c4a11628f55a4df523b3ef83604051610aff91815260200190565b60405180910390a3505050565b602081525f82518060208401528060208501604085015e5f604082850101526040601f19601f83011684010191505092915050565b80356001600160a01b0381168114610b57575f5ffd5b919050565b5f5f60408385031215610b6d575f5ffd5b610b7683610b41565b946020939093013593505050565b5f60208284031215610b94575f5ffd5b610b9d82610b41565b9392505050565b5f5f5f60608486031215610bb6575f5ffd5b610bbf84610b41565b9250610bcd60208501610b41565b929592945050506040919091013590565b5f5f60408385031215610bef575f5ffd5b610bf883610b41565b9150610c0660208401610b41565b90509250929050565b600181811c90821680610c2357607f821691505b602082108103610c4157634e487b7160e01b5f52602260045260245ffd5b50919050565b6020808252602f908201527f3953746172476f6c643a2050726f6669742077616c6c65742063616e6e6f742060408201526e6265207a65726f206164647265737360881b606082015260800190565b634e487b7160e01b5f52601160045260245ffd5b808202811582820484141761040a5761040a610c96565b5f82610cdb57634e487b7160e01b5f52601260045260245ffd5b500490565b8082018082111561040a5761040a610c9656fea264697066735822122064e6ab46321a726cfc2362b969e78dfb8f1f8d7ff7e51fccacdfb92aaff4bf5664736f6c634300081c0033",
  "linkReferences": {},
  "deployedLinkReferences": {},
  "immutableReferences": {},
  "inputSourceName": "project/contracts/9StarGold.sol",
  "buildInfoId": "solc-0_8_28-439a8205800790a20fb304c00e88fcc11b893eda"
}